:020000040800F2
:1000000088200020A9740008ED720008EF72000833
:10001000F1720008F3720008F57200080000000099
:10002000000000000000000000000000F77200085F
:10003000F972000800000000FB720008FD72000861
:10004000D5740008D9740008DD740008E174000854
:10005000E5740008E9740008ED740008F174000804
:10006000F5740008F9740008FD74000801750008B3
:1000700005750008097500080D7500081175000860
:1000800015750008197500081D7500082175000810
:1000900025750008297500082D75000831750008C0
:1000A00035750008397500083D7500084175000870
:1000B0004575000825730008497500084D7500084E
:1000C0005175000855750008597500085D750008E0
:1000D000617500081B7300086575000869750008E4
:1000E0006D75000871750008757500087975000850
:1000F0007D75000881750008857500088975000800
:100100008D750008917500089575000899750008AF
:100110009D750008A1750008A5750008A97500085F
:10012000AD750008B1750008B5750008B97500080F
:10013000BD750008C1750008C5750008C9750008BF
:10014000CD750008D1750008D57500080573000845
:10015000D9750008DD7500080F730008E175000807
:10016000E5750008E9750008ED750008F1750008EF
:10017000F5750008F9750008FD750008000000001D
:100180000176000805760008097600080D7600085B
:100190001176000815760008197600081D7600080B
:1001A0002176000825760008297600082D760008BB
:1001B0003176000835760008397600083D7600086B
:1001C00041760008457600080EB418B5040008987A
:1001D000012817D1A06B30F48030A063E168DFF80C
:1001E000400A0140E160E06830F44010E0600F98A0
:1001F000012803D1E06850F48010E060200000F096
:1002000079FF0AE0E06850F04000E060200000F074
:1002100071FFA16B51F48031A1630599012907D1C8
:10022000A16851F00601A160A16851F02001A16010
:10023000C0B212BC5DF810FB30B403001000C0B2B5
:1002400002285BD1DFF8DC09814205D3DFF8D80949
:10025000814201D20F2458E0DFF8CC09814205D356
:10026000DFF8C809814201D20E244EE0DFF8BC0954
:10027000814205D3DFF8B809814201D20D2444E060
:10028000DFF8AC09814205D3DFF8A809814201D229
:100290000C243AE0DFF89C09814205D3DFF8980985
:1002A000814201D20B2430E0DFF88C09814205D372
:1002B000DFF88809814201D20A2426E0DFF87C09B0
:1002C000814205D3DFF87809814201D209241CE07C
:1002D000DFF86C09814205D3DFF86809814201D259
:1002E000082412E0DFF85C09814205D3DFF85809E1
:1002F000814201D2072408E0062406E01000C0B2C3
:10030000002801D1092400E00924D86830F4705095
:10031000D860D868A50215F470552843D86000202D
:1003200030BC70470100886850F0010088600020F0
:1003300070470100886840084000886000207047CE
:1003400070B504000D000026E06830F0C040E060A9
:100350002800C0B201280FD1E06850F00050E060E2
:10036000012000F0F5FE761C200000F06BFE012855
:1003700018D0322EF4D315E02800C0B200280FD1D7
:10038000E06850F08040E060012000F0E1FE761C63
:10039000200000F057FE002804D0322EF4D301E0F4
:1003A000012004E0322E01D1012000E0002070BDC8
:1003B0000EB4F0B504000025260000270F2F06D24A
:1003C000002004EB8701C1F804017F1CF6E70F98B9
:1003D000002814D116F50060406850F0020016F5B0
:1003E00000614860A06B30F40010A063206850F0FA
:1003F00040002060206850F08000206003E0A06B87
:1004000050F40010A063002016F5606108600A989F
:1004100001280CD10898002804D10021200000F008
:10042000FFF808E00121200000F0FAF803E00321C2
:10043000200000F0F5F81021200000F0A9F80028B5
:1004400001D001200500200000F0C7F8002801D0ED
:1004500001200500002016F500610861002016F556
:1004600000614861002016F50061C861002005990F
:1004700088422DD216EB401111F510610968002950
:1004800011D5002807D15FF0006116EB401212F57C
:10049000106211600DE05FF0904116EB401212F512
:1004A0001062116005E0002116EB401212F5106297
:1004B000116016EB401111F5106100220A6116EB74
:1004C000401111F510614FF67F328A60401CCEE773
:1004D0000021059881422DD216EB411010F53060B5
:1004E0000068002811D5002907D15FF0006016EBE5
:1004F000411212F5306210600DE05FF0904016EB93
:10050000411212F53062106005E0002016EB411236
:1005100012F53062106016EB411010F530600022C9
:10052000026116EB411010F530604FF67F328260A9
:10053000491CCEE716F50060006930F4807016F5AE
:10054000006210610020A0617FF080406061079828
:10055000002803D1A06950F01000A061A269DFF863
:10056000900B0243A2610B98002803D0A06950F0C1
:100570000800A0610F98012805D1A06940F08040D3
:1005800050F00400A0612800C0B2F0BC5DF810FB80
:1005900081B00200002000900098401C0090DFF81D
:1005A0009C0B009B834201D3032014E01369002BB2
:1005B000F2D5002300938B0153F020031361009BBD
:1005C0005B1C0093009B834201D3032003E013696B
:1005D0009B06F4D4002001B0704781B001000020D8
:1005E00000900098401C0090DFF8500B009A824267
:1005F00001D3032012E00A69002AF2D500220092FA
:1006000010220A61009A521C0092009A824201D381
:10061000032003E00A69D206F4D4002001B0704739
:1006200010B40200130013F5006004680800C0B2A3
:10063000044313F500600460002010BC7047020002
:10064000130013F50060816811F00601002901D143
:10065000002006E0022901D0062901D1022000E095
:100660000F20C0B2704770B4020013000C784878B5
:1006700001282BD113F50060C06901250E7816F012
:100680000F06B540ADB2284313F50065E86113EBE2
:10069000441010F510600068000440D413EB4410BF
:1006A00010F5106000688D686D056D0D28430D799B
:1006B00050EA854050EA845040F0805050F40040A9
:1006C00013EB441515F51065286028E013F500605C
:1006D000C06901250E7816F00F06B54050EA0540B6
:1006E00013F50065E86113EB441010F53060006805
:1006F000000414D413EB441010F5306000688D68CA
:100700006D056D0D28430D7950EA854040F080500D
:1007100050F4004013EB441515F5306528600020B7
:1007200070BC704770B4020013000C784878012840
:1007300047D113EB441010F510600068002817D55E
:1007400013EB441010F51060006850F0006013EBDC
:10075000441515F51065286013EB441010F5106072
:10076000006850F0804013EB441515F510652860C3
:10077000012013F50065ED6B0E7816F00F0610FAE8
:1007800006F6B6B2B54313F50066F56313F50065DA
:10079000ED690E7816F00F06B04080B235EA000021
:1007A00013F50065E86113EB441010F5106005685F
:1007B000DFF88C09054013EB441010F5106005605C
:1007C00045E013EB441010F530600068002817D5A1
:1007D00013EB441010F53060006850F0006013EB2C
:1007E000441515F53065286013EB441010F53060A2
:1007F000006850F0804013EB441515F53065286013
:10080000012013F50065ED6B0E7816F00F0610FA57
:1008100006F635EA064513F50066F56313F500653F
:10082000ED690E7816F00F06B04035EA004513F575
:100830000060C56113EB441010F530600568DFF807
:100840000409054013EB441010F5306005600020EA
:1008500070BC70472DE9F84306000F009046B14682
:100860003C787878012840F018813869002824D134
:1008700019EB441010F5106019EB441111F51061DB
:1008800009696FF3DC41016119EB441010F5106048
:1008900019EB441111F51061096951F4002101614E
:1008A00019EB441010F5106019EB441111F51061AB
:1008B0000969C90CC90401616BE019EB441010F51A
:1008C000106019EB441111F510610969C90CC904D4
:1008D000016119EB441010F5106019EB441111F58A
:1008E000106109696FF3DC410161002C12D1B86815
:1008F0003969884201D2B868386119EB441010F5A3
:10090000106019EB441111F51061096951F40021CF
:10091000016115E019EB441111F5106119EB441058
:1009200010F5106002693B69B868C3185B1EB868AF
:10093000B3FBF0F0DFF8103813EAC0431A430A6142
:1009400019EB441010F5106019EB441111F510610A
:1009500009693A695203520B114301613879012840
:1009600017D119EB441010F5106019EB441111F573
:100970001061096931F0C041016119EB441010F5B3
:10098000106019EB441111F51061096951F0005123
:1009900001614046C0B2012836D1F869002805D06F
:1009A00019EB441010F51060F9694161387901289C
:1009B0001DD119F500608068C0050CD419EB4410F6
:1009C00010F51060006850F0005019EB441111F55B
:1009D000106108600BE019EB441010F5106000681E
:1009E00050F0805019EB441111F51061086019EBBB
:1009F000441010F51060006850F0044019EB4411E9
:100A000011F51061086008E119EB441010F5106051
:100A1000006850F0044019EB441111F510610860B2
:100A20003879012810D03869002800F0F68019F5CF
:100A30000060406B01213A7812F00F0291400843A8
:100A400019F500614863E8E019F500608068C005A9
:100A50000CD419EB441010F51060006850F00050F1
:100A600019EB441111F5106108600BE019EB44100B
:100A700010F51060006850F0805019EB441111F52A
:100A8000106108604046C0B200903B699BB23A7862
:100A9000F968300000F055F9BFE019EB441010F58B
:100AA000306019EB441111F530610969C90CC904B2
:100AB000016119EB441010F5306019EB441111F588
:100AC000306109696FF3DC410161002C21D1386983
:100AD000002801D0B8683861B868386219EB441052
:100AE00010F5306019EB441111F5306109693A6A6B
:100AF0005203520B1143016119EB441010F53060A1
:100B000019EB441111F53061096951F400210161BB
:100B100049E0386900281AD119EB441010F530600B
:100B200019EB441111F530610969BA685203520B8F
:100B30001143016119EB441010F5306019EB4411B9
:100B400011F53061096951F4002101612BE0396927
:100B5000B8684118491EB868B1FBF0F00500B968E3
:100B6000280080B24143396219EB441010F530601F
:100B700019EB441111F5306109692A0092B2DFF8CE
:100B8000C83513EAC2431943016119EB441010F54B
:100B9000306019EB441111F5306109693A6A52036A
:100BA000520B114301614046C0B2012808D1F868D8
:100BB000002805D019EB441010F53060F968416148
:100BC000387901281DD119F500608068C0050CD462
:100BD00019EB441010F53060006850F0005019EB2C
:100BE000441111F5306108600BE019EB441010F569
:100BF0003060006850F0805019EB441111F53061FD
:100C0000086019EB441010F53060006850F00440A3
:100C100019EB441111F5306108600020BDE8F28342
:100C2000BFFFBDFFC0ACD800C0E1E4000024F40069
:100C300080730601A0491A01002D310140A44C0126
:100C400000366E0120ABA6010048E80138B402006E
:100C500000200090002013004C78012C37D10C7834
:100C600013EB441414F510642468002C66D50C783A
:100C700013EB441414F510640D7813EB451515F5BA
:100C800010652D6855F0006525600C7813EB441451
:100C900014F510640D7813EB451515F510652D68E6
:100CA00055F080452560009C641C0094009C42F235
:100CB0001175AC4202D3012420003FE00C7813EB05
:100CC000441414F510642468002CECD436E00C783D
:100CD00013EB441414F530642468002C2ED50C78E2
:100CE00013EB441414F530640D7813EB451515F52A
:100CF00030652D6855F0006525600C7813EB4414C1
:100D000014F530640D7813EB451515F530652D6835
:100D100055F080452560009C641C0094009C42F2C4
:100D20001175AC4202D30124200007E00C7813EBCC
:100D3000441414F530642468002CECD4C0B232BCE6
:100D400070472DE9F0430700079CBC468E46200003
:100D5000C0B200281ED1180080B2C01C8008050057
:100D600000200600AE4215D27046D0F800809146B1
:100D70005FFA89F94FF4805000FB09C919F58059D1
:100D8000C9F800801EF10100401C401C10F1010E4A
:100D9000761CE7E70020BDE8F083F8B504002500E5
:100DA00008001600B6B2B60812F003075FF0000C98
:100DB000B4450CD215F580531B688646CEF800303A
:100DC000401C401C401C401C1CF1010CF0E73B0087
:100DD0009BB2002B18D000239C4615F580531B684E
:100DE000EE46CEF80030009BE6465FFA8EFE5FEAE4
:100DF000CE0E33FA0EF303701CF1010C401C7F1E63
:100E00003B009BB2002BEED1F2BD30B403000A00D0
:100E10001C0011785078012821D114EB411010F5F5
:100E20001060006800280DD400290BD014EB41108D
:100E300010F51060006830F0804014EB411515F596
:100E40001065286014EB411010F51060006850F434
:100E5000001014EB411515F51065286020E014EB27
:100E6000411010F53060006800280DD400290BD027
:100E700014EB411010F53060006830F0804014EB46
:100E8000411515F53065286014EB411010F5306000
:100E9000006850F4001014EB411515F5306528601A
:100EA000002030BC704730B4020013000C78487842
:100EB00001281ED113EB441010F51060006830F4C7
:100EC000001013EB441515F5106528600879032808
:100ED00002D0087902282AD113EB441010F51060D3
:100EE000006850F0805013EB441515F5106528602C
:100EF0001DE013EB441010F53060006830F4001072
:100F000013EB441515F5306528600879032802D0E5
:100F1000087902280BD113EB441010F530600068FB
:100F200050F0805013EB441515F530652860002013
:100F300030BC704710B40200130013F50060006865
:100F400030F4FE6013F50064206013F50060006863
:100F50000C00E4B2240114F4FE64204313F5006491
:100F60002060002010BC704701000A0012F560608C
:100F700000688008800012F56063186012F5006058
:100F8000406830F0020012F500635860002070479E
:100F900001000A0012F5606000688008800012F508
:100FA0006063186012F50060406850F0020012F5AE
:100FB0000063586000207047020050699169084042
:100FC00070470200130013F50060806913F500619B
:100FD000C9690840000C70470200130013F5006057
:100FE000806913F50061C969084080B2704710B488
:100FF00003001C000800C0B214EB401010F5306074
:10100000806814F500625269104010BC704770B4DB
:101010000200130013F50060046913F50060456BCE
:1010200011F00F002E00C640F60116F08006344382
:101030000800C0B213EB401010F51060806820402B
:1010400070BC7047406910F00100704701000A0051
:1010500012F510600068C00AC00212F51063186033
:1010600012F50060406850F4807012F5006358601B
:101070000020704770B403001C001D6CDFF8CC002A
:10108000854206D314F530600068002801D50020A1
:101090002BE0002014F53066306114F530600069F3
:1010A00050F4002014F53066306114F530600069AA
:1010B00050F0180014F53066306114F530600069A6
:1010C00050F0C04014F5306630610800C0B201280D
:1010D0000AD114F53060426114F53060006850F0B8
:1010E000802014F530663060002070BC704700002E
:1010F00000383C8081B00100002000900098401C26
:1011000000900E48009A824201D3032014E00A693D
:10111000002AF3D5002200920A6952F001020A6106
:10112000009A521C0092009A824201D3032003E0ED
:101130000A69D207F4D4002001B07047410D0300C2
:10114000007833EC0078F3EF0000F81F0B30544FB9
:1011500070B5040000F010F80500260016F1010F2C
:1011600002D004480078361800F006F8401BB04260
:10117000FAD370BDFC00002001480068704700BF32
:10118000781C002010B50400002C01D1012035E0AE
:10119000A0690028FFD1E06F002805D1002084F865
:1011A0007800200000F05EFF2420E06720680068DF
:1011B0004008400021680860606A002802D02000D2
:1011C00000F030FC200000F055FA012801D1012088
:1011D00014E02068406830F490402168486020683E
:1011E000806830F02A00216888602068006850F02C
:1011F000010021680860200000F081FC10BD10B5DE
:101200000400002C01D1012023E02420E0672068A5
:1012100000684008400021680860002021680860DC
:10122000002021684860002021688860200000F0CC
:10123000A8FF0020C4F884000020E0670020C4F864
:1012400080000020206600206066002084F878007E
:10125000002010BD70B505000C001600D5F8800008
:1012600020281FD1002C03D0300080B2002801D1EB
:10127000012018E0002028662868406800020AD58E
:10128000286850E8000F50F0806001002A6842E8AA
:1012900000100028F4D1320092B22100280000F0A2
:1012A000B1FC00E0022070BD70B505000C00160016
:1012B000E86F202848D1002C03D0300080B20028ED
:1012C00001D1012041E0EC64A5F85060A5F852601E
:1012D0000020C5F884002120E867286F002820D06E
:1012E000DFF88403296FC863DFF88003296F08647F
:1012F000DFF87C03296FC8640020296F086533007C
:101300009BB2286810F12802E96C286F00F0DBFF1F
:10131000002806D01020C5F884002020E8670120AE
:1013200013E04020296808622868083050E8000F60
:1013300050F080000100286810F1080242E8001017
:101340000028F1D1002000E0022070BD2DE9F04717
:1013500006003068C7693068D0F800803068D0F87F
:10136000089040F60F043C40002C0BD1B80609D57C
:101370005FEA886006D5B06E002802D03000B16EFA
:1013800088476FE1002C00F0AA805FEAC97005D49D
:10139000DFF85C0618EA000F00F0A18017F00100EA
:1013A000C0B200280BD05FEAC85008D501203168D0
:1013B0000862D6F8840050F00100C6F88400B8072F
:1013C0000DD519F00100C0B2002808D00220316804
:1013D0000862D6F8840050F00400C6F8840078074C
:1013E0000DD519F00100C0B2002808D004203168E2
:1013F0000862D6F8840050F00200C6F8840038076E
:1014000010D55FEA886004D419F00100C0B200284A
:1014100008D0082031680862D6F8840050F008002F
:10142000C6F8840038050CD55FEA481009D54FF49A
:10143000006031680862D6F8840050F02000C6F8D9
:101440008400D6F88400002848D0B80608D55FEAA2
:10145000886005D5B06E002802D03000B16E884794
:10146000D6F88400050030688068400602D415F084
:10147000280F2DD0300000F04BFC3068806840060B
:1014800022D53068083050E8000F30F040000100ED
:10149000306810F1080242E800100028F1D1706FA6
:1014A00000280DD0DFF84C05716F0865706F00F0F3
:1014B000A4FF002812D0706F716F096D88470DE08E
:1014C000300001F0A5FA09E0300001F0A1FA05E0D2
:1014D000300001F09DFA0020C6F88400C2E0306EB2
:1014E000012840F0AA80F80640F1A7805FEAC860B2
:1014F00040F1A3801020316808623068806840069F
:101500005AD5706F0068D0F804A0504680B2002809
:1015100051D05046B6F8581080B288424BD2A6F847
:101520005AA0706FC069B0F5807F39D0306850E83C
:10153000000F30F480700100326842E8001000288B
:10154000F4D13068083050E8000F40084000010036
:10155000306810F1080242E800100028F1D130682C
:10156000083050E8000F30F040000100306810F102
:10157000080242E800100028F1D12020C6F88000BF
:1015800000203066306850E8000F30F01000010095
:10159000326842E800100028F4D1706F00F0DFFEDE
:1015A00002207066B6F85810B6F85A00091A89B2C7
:1015B000300001F033FA55E0B6F85800B6F85AA0FA
:1015C000B0EB0A0AB6F85A00002835D0504680B26F
:1015D000002831D0306850E8000F30F490700100DE
:1015E000326842E800100028F4D13068083050E832
:1015F000000F400840000100306810F1080242E886
:1016000000100028F1D12020C6F8800000203066AC
:101610000020B066306850E8000F30F01000010084
:10162000326842E800100028F4D10220706651466A
:1016300089B2300001F0F2F914E0380609D55FEA0A
:10164000086006D5F06E002802D03000F16E8847A1
:1016500008E0780606D55FEA486003D5300000F060
:10166000EAFBFFE7BDE8F0876F1D0008BF1D00081B
:10167000CD1D00082DE9F84304000027A16820696A
:10168000014360690143E069014320680268DFF8B3
:10169000680302400A43206802602068426832F40E
:1016A0004052E068024320684260D4F81880206A03
:1016B00050EA08082068806830F4306058EA00007A
:1016C000226890602068DFF8342390421BD1DFF855
:1016D0003003006810F00300002805D0022806D06F
:1016E00008D3032809D00BE05FF00109FDE05FF0AB
:1016F0000209FAE05FF00409F7E05FF00809F4E09E
:101700005FF01009F1E02068DFF8F81288421CD180
:10171000DFF8EC02006810F00C00002806D0042866
:101720000AD0082805D00C2809D00BE05FF000098A
:10173000DBE05FF00209D8E05FF00409D5E05FF07C
:101740000809D2E05FF01009CFE02068DFF8B81296
:1017500088421CD1DFF8A802006810F03000002891
:1017600006D010280AD0202805D0302809D00BE058
:101770005FF00009B9E05FF00209B6E05FF004092C
:10178000B3E05FF00809B0E05FF01009ADE0206859
:101790009E4988421BD19A48006810F0C00000287A
:1017A00006D040280AD0802805D0C02809D00BE0F8
:1017B0005FF0000999E05FF0020996E05FF004092C
:1017C00093E05FF0080990E05FF010098DE0206879
:1017D0008F4988421ED18A48006810F44070002862
:1017E00009D0B0F5807F0CD0B0F5007F06D0B0F501
:1017F000407F09D00BE05FF0000976E05FF002095E
:1018000073E05FF0040970E05FF008096DE05FF0DD
:1018100010096AE020687F4988421ED17848006834
:1018200010F44060002809D0B0F5806F0CD0B0F5FE
:10183000006F06D0B0F5406F09D00BE05FF00109F2
:1018400053E05FF0020950E05FF004094DE05FF003
:1018500008094AE05FF0100947E020686E498842B5
:101860001ED16748006810F44050002809D0B0F538
:10187000805F0CD0B0F5005F06D0B0F5405F09D0B6
:101880000BE05FF0000930E05FF002092DE05FF04F
:1018900004092AE05FF0080927E05FF0100924E05E
:1018A00020685E4988421ED15548006810F44040C7
:1018B000002809D0B0F5804F0CD0B0F5004F06D00D
:1018C000B0F5404F09D00BE05FF000090DE05FF08C
:1018D00002090AE05FF0040907E05FF0080904E08C
:1018E0005FF0100901E05FF01009E069B0F5004F0A
:1018F0003FD14846C0B2002808D001280AD00228AB
:101900000CD004280CD008280ED010E001F0A4FB65
:1019100001000FE001F0ABFB01000BE0404909E0E2
:1019200001F051FB010005E04FF4004102E000210D
:1019300001200700002952D06068400810EB4100E8
:101940006268B0FBF2F00600102E0FD3B6F5803FB0
:101950000CD24FF6F07232403000C0F34200024326
:101960001500280080B22268D06038E0012007000E
:1019700035E04846C0B2002808D001280AD0022825
:101980000CD004280CD008280ED010E001F064FB25
:1019900001000FE001F06BFB01000BE0204909E0C2
:1019A00001F011FB010005E04FF4004102E00021CD
:1019B00001200700002912D0606811EB5000626816
:1019C000B0FBF2F00600102E07D3B6F5803F04D22C
:1019D000300080B22268D06001E0012007000020C2
:1019E000A0660020E0663800C0B2BDE8F2830000C7
:1019F000200100041D1E0008F369FFEF00100140E4
:101A0000903802400044004000480040004C004034
:101A1000005000400014014000780040007C00406D
:101A20000024F40090F82410090707D501684A68DB
:101A300032F40042416B0A4301684A6090F8241076
:101A4000C90707D501684A6832F40032816A0A433F
:101A500001684A6090F82410890707D501684A6830
:101A600032F48032C16A0A4301684A6090F8241057
:101A7000490707D501684A6832F48022016B0A439E
:101A800001684A6090F82410C90607D501688A6881
:101A900032F48052816B0A4301688A6090F8241006
:101AA000890607D501688A6832F40052C16B0A437F
:101AB00001688A6090F82410490613D501684A68C5
:101AC00032F48012016C0A4301684A60016CB1F57E
:101AD000801F07D101684A6832F4C002416C0A4392
:101AE00001684A6090F82410090607D501684A6821
:101AF00032F40022816C0A4301684A60704738B5AD
:101B000004000020C4F88400FFF736FB05002068BD
:101B1000006800071DD57FF07E4000902B0000225A
:101B20005FF40011200000F022F8002811D0206896
:101B300050E8000F30F080000100226842E80010F9
:101B40000028F4D12020E067002084F878000320EA
:101B50000CE02020E0672020C4F8800000202066F0
:101B600000206066002084F87800002032BD2DE956
:101B7000F04105000E0090461F00069C2868C069D1
:101B80003040B04201D1012000E000204146C9B2FE
:101B9000884234D114F1010FF0D0FFF7EDFAC01BE9
:101BA000844201D3002C01D1032029E02868006879
:101BB0004007E3D52868C06900070DD508202968CB
:101BC0000862280000F0A4F80820C5F8840000206E
:101BD00085F87800012013E02868C0690005CDD59C
:101BE0004FF4006029680862280000F091F8202076
:101BF000C5F88400002085F87800032000E000206C
:101C0000BDE8F08130B403005965A3F85820A3F86B
:101C10005A20002098669868B0F5805F0BD118694B
:101C2000002804D140F2FF10A3F85C0023E0FF205D
:101C3000A3F85C001FE0986800280AD11869002802
:101C400003D1FF20A3F85C0015E07F20A3F85C001F
:101C500011E09868B0F1805F0AD11869002803D1BB
:101C60007F20A3F85C0006E03F20A3F85C0002E0C0
:101C70000020A3F85C000020C3F884002220C3F8F1
:101C800080001868083050E8000F50F00100040090
:101C9000186810F1080545E800400028F1D198685F
:101CA000B0F5805F06D11869002803D10FF29520A6
:101CB000986602E00FF2A9109866186900280BD008
:101CC000186850E8000F50F4907004001D6845E853
:101CD00000400028F4D10AE0186850E8000F50F0E6
:101CE000200004001D6845E800400028F4D10020D1
:101CF00030BC7047016851E8001F31F0C0010A0094
:101D0000036843E800210029F4D12021C16770470E
:101D1000016851E8001F31F490710A00036843E83C
:101D200000210029F4D10168083151E8001F490859
:101D300049000A00016811F1080343E80021002965
:101D4000F1D1016E01290AD1016851E8001F31F07B
:101D500010010A00036843E800210029F4D1202182
:101D6000C0F880100021016600218166704738B5F7
:101D70000400A56BE069B0F5807F1CD00020A5F8B9
:101D800052002868083050E8000F30F08000010051
:101D9000286810F1080242E800100028F1D12868F4
:101DA00050E8000F50F0400001002A6842E800109F
:101DB0000028F4D102E0280000F09FFD31BD38B5C5
:101DC0000400A56B280001F079F931BDF8B50400D5
:101DD000A56BEE6FD5F8807028688068000607D57F
:101DE000212E05D10020A5F852002800FFF782FF20
:101DF00028688068400607D5222F05D10020A5F865
:101E00005A002800FFF784FFD5F8840050F0100036
:101E1000C5F88400280000F0FBFDF1BD38B50400D2
:101E2000A56B0020A5F85A000020A5F85200280054
:101E300000F0EEFD31BD10B50400206850E8000F41
:101E400030F040000100226842E800100028F4D180
:101E50002020E0670020E066200000F04EFD10BD6D
:101E600070B50500B5F85C60D5F88000222862D115
:101E70002868406A040016EA0400696D0870686DFD
:101E8000401C6865B5F85A00401EA5F85A00B5F820
:101E90005A00002855D1286850E8000F30F490709F
:101EA00001002A6842E800100028F4D128680830B0
:101EB00050E8000F400840000100286810F10802B7
:101EC00042E800100028F1D12020C5F88000002051
:101ED000A866002068662868406800020AD528685D
:101EE00050E8000F30F0806001002A6842E80010DE
:101EF0000028F4D1286E012819D10020286628680E
:101F000050E8000F30F0100001002A6842E800108D
:101F10000028F4D12868C069C00602D510202968BD
:101F20000862B5F85810280000F078FD09E0280094
:101F300000F0C1FC05E02868806950F008002968BD
:101F4000886170BDF8B50500B5F85C70D5F8800003
:101F5000222863D12868406A0400686D060017EAE9
:101F600004003080686D801C6865B5F85A00401E1A
:101F7000A5F85A00B5F85A00002855D1286850E84D
:101F8000000F30F4907001002A6842E80010002829
:101F9000F4D12868083050E8000F400840000100E4
:101FA000286810F1080242E800100028F1D1202032
:101FB000C5F880000020A866002068662868406890
:101FC00000020AD5286850E8000F30F08060010058
:101FD0002A6842E800100028F4D1286E012819D19F
:101FE00000202866286850E8000F30F0100001003B
:101FF0002A6842E800100028F4D12868C069C006A9
:1020000002D5102029680862B5F85810280000F0A1
:1020100005FD09E0280000F04EFC05E02868806915
:1020200050F0080029688861F1BD30B50168846806
:102030004218416802EB5103C90703D54C4401E043
:10204000491C08D19A4218BF12F9011B01D10C306A
:1020500030BD12F8015B002904F8015BF0D4491E81
:10206000F7D5EFE730B5A7B00400564D286850F01B
:1020700001002860286810F001000090009828688E
:1020800050F002002860286810F0020000900098CC
:10209000402006900120179006A801F011F84A4848
:1020A000016851F010010160006810F0100000900C
:1020B0000098286850F480002860286810F4800098
:1020C000009000984FF400700190022002900120CF
:1020D0000390022004900720059001A93B4801F0DD
:1020E000CBFA802001900720059001A9384801F023
:1020F000C3FA00220521252001F066FD252001F00C
:1021000078FD344D344828605FF0006068604020FE
:10211000A8600020E8604FF48060286100206861BA
:102120000020A8610020E861002028620020686289
:102130000320A8625FF40000E8625FF400102863E7
:10214000280000F04FF82567AC63002206214620E6
:1021500001F03AFD462001F04CFD2048016851F0A5
:1021600002010160006810F0020000900098002257
:1021700006211D2001F028FD1D2001F03AFD27B0A9
:1021800030BD38B50400164D286850F010002860A6
:10219000286830F0100028604FF400710B4801F0FF
:1021A0008AFB80210A4801F086FB252001F028FDEA
:1021B000286850F010002860286830F0100028606F
:1021C00031BD000030380240443802400000024077
:1021D000000402408C1B0020B864024040380240DA
:1021E0002438024070B504000026FEF7C5FF050044
:1021F000002C01D1012065E0606A0028022084F8EB
:102200003500002084F83400206800684008400051
:102210002168086020680068C0070BD5FEF7ACFF96
:10222000401B0628F6D320206065032084F8350083
:10223000032047E020680168DFF85004014060682F
:102240000143A0680143E0680143206901436069DC
:102250000143A0690143E0690143206A0143606AC8
:10226000042803D1E06A0143206B01432068016028
:1022700020684669F608F600606A0643606A04282A
:1022800010D1A06A0643E06A00280BD0200000F0BD
:1022900003FA002806D040206065012084F835004C
:1022A00001200FE020684661200000F0D5F9010010
:1022B0003F22E06D82408A6000206065012084F842
:1022C0003500002070BD2DE9F84304000D00160014
:1022D0001F005FF00008D4F8589094F834000128EB
:1022E00001D1022039E0012084F8340094F835004F
:1022F00001282BD1022084F83500002060653B00C6
:1023000032002900200000F090F93F21E06D81406B
:10231000C9F808102068006850F0160021680860AD
:102320002068406950F0800021684861206C0028D6
:1023300005D02068006850F0080021680860206817
:10234000006850F001002168086004E0002084F873
:102350003400022080464046C0B2BDE8F28370B52A
:102360000400A56DFEF708FF060094F8350002286A
:1023700006D080206065002084F8340001203BE016
:102380002068006830F01600216808602068406905
:1023900030F0800021684861206C002802D1A06CD8
:1023A000002805D02068006830F008002168086027
:1023B00020680068400840002168086020680068C4
:1023C000C0070ED5FEF7D8FE801B0628F6D32020C6
:1023D0006065032084F83500002084F83400032071
:1023E0000AE03F21E06D8140A960012084F83500BA
:1023F000002084F83400002070BD010091F8350001
:10240000022803D080204865012009E0052081F8DA
:10241000350008680068400840000A681060002025
:102420007047F8B5040000200090DFF864020068EF
:102430004FF41651B0FBF1F5A66D37680821E06D39
:1024400011FA00F0074210D02068006840070CD550
:102450002068006830F0040022681060E06D814060
:10246000B160606D50F001006065E06D3900C14001
:10247000C8070BD520684069000607D50121E06D2B
:102480008140B160606D50F0020060650421E06D34
:1024900011FA00F007420AD020680068800706D5CC
:1024A000E06D8140B160606D50F004006065102106
:1024B000E06D11FA00F007422CD020680068000798
:1024C00028D5E06D8140B16020680068400311D5D7
:1024D00020680068000306D4206C00281AD0200071
:1024E000216C884716E0A06C002813D02000A16C56
:1024F00088470FE020680068C00505D420680068A0
:1025000030F0080021680860206C002802D020000C
:10251000216C88472021E06D11FA00F007425FD05E
:1025200020680068C0065BD5E06D8140B16094F81A
:102530003500052828D12068006830F01600216891
:1025400008602068406930F0800021684861206C94
:10255000002802D1A06C002805D02068006830F067
:102560000800216808603F21E06D8140B1600120D2
:1025700084F83500002084F83400206D002802D053
:102580002000216D88474FE020680068400311D586
:1025900020680068000306D4606C002820D020006A
:1025A000616C88471CE0E06B002819D02000E16BCB
:1025B000884715E020680068C0050BD420680068D3
:1025C00030F0100021680860012084F835000020F8
:1025D00084F83400E06B002802D02000E16B8847CB
:1025E000606D002820D0606DC00717D5052084F8E5
:1025F00035002068006840084000216808600098A5
:10260000401C0090854203D320680068C007F6D4C0
:10261000012084F83500002084F83400E06C0028A4
:1026200002D02000E16C8847F1BD30B40468246812
:1026300034F4802405682C60046863608468402C4E
:1026400004D10468A2600468E16003E00468A1604A
:102650000468E26030BC7047017801F0FF01103976
:102660001822B1FBF2F10B4A525CC265042905D372
:102670000268920A9202121D826503E00268920AC1
:1026800092028265806D7047000000003F8010F06C
:1026900004000020C474000810B402000020936AF3
:1026A0009169002916D1002B05D0022B03D008D345
:1026B000032B0DD00DE0D16AC90101D5012108001D
:1026C00035E0D16AB1F1C07F01D1012108002EE0CF
:1026D0002DE02CE09169B1F5005F18D1002B05D0F9
:1026E000022B03D005D3032B09D00FE001210800F2
:1026F0001DE0D16AC90101D50121080017E0D16AA6
:10270000B1F1C07F01D10121080010E00FE01900F4
:102710000029022902D9C91E03D008E001210800BE
:1027200005E0D16AC90101D501210800FFE7C0B267
:1027300010BC704738B5AC4CAC4820605FF4E13059
:1027400060600020A0600020E06000202061002088
:10275000A0610C2060610020E0612000FEF712FD06
:10276000002801D000F059F9A14D0122A1480068CC
:1027700005EB00012000FEF76DFD002801D000F000
:102780004CF900F01AF99C4801F0E5FA002801D054
:1027900000F043F9994C00222900200001F05FFF6E
:1027A0009749200001F06EFF002032BD80B58E48B1
:1027B000FEF725FD002801D000F02FF9002002BD12
:1027C00070B504000D0016002000C0B2002810D023
:1027D00001280FD002280ED003280DD004280CD0D9
:1027E00020280BD021281ED022282FD023282ED0FD
:1027F0002EE02DE02CE02BE02AE029E0814829782A
:102800006A7851EA0221AA7851EA0241EA7851EA4B
:10281000026101602979017169794171A979817138
:1028200000F071F814E07748016829700168090A1E
:1028300069700168090CA9700168090EE9700179D5
:102840002971417969718079A87101E000E0FFE7A1
:10285000002070BD2DE9F041040066486A4F3968D8
:102860000268914225D001683A68914204D23868E2
:10287000D0F50060060003E001683868091A0E0010
:1028800038680500DFF874813200594800EB050113
:10289000404601F0E4FE404601F003FF002808D165
:1028A0003868301838603868B0F5006F01D1002002
:1028B0003860BDE8F08110B504004E480168491C3D
:1028C00001600168B1F5006F01D1002101600122B2
:1028D0004749006801442000FEF7BCFC10BD38B534
:1028E00004000D002A6892B221003F48FEF7DCFC8C
:1028F000002032BD03000020704710B504003F489F
:1029000001F0FBFE10BD10B5374C2000FEF777FC40
:10291000002801D000F081F83A490879002802D057
:10292000022803D006E00020E06005E04FF40050EC
:10293000E06001E00020E0604879002803D0022830
:1029400008D003D30AE00020206109E04FF4C06002
:10295000206105E04FF48060206101E000202061EB
:102960008879072802D0082803D00CE00020A06056
:102970000BE02069002802D10020A06002E04FF4A3
:102980008050A06001E00020A06008686060002026
:10299000A0610C2060610020E0612000FEF7F2FBE6
:1029A000002801D000F039F80122114811490968C6
:1029B00001442000FEF74EFC10BD80B50E481349BF
:1029C000016041F28731C160532141600021016102
:1029D000002181600021816101F080F9002801D08F
:1029E00000F01BF801BD0000041B00200010014096
:1029F000000900207C1C0020EC1B00200816002091
:102A00000001002090000020801C002000040040F5
:102A100010B5040000F001F810BD704770470000C9
:102A20002DE9F84304000027002C01D101201CE20D
:102A30002078C0076DD5DFF85006016811F00C0151
:102A4000042909D0006810F00C0008280ED1DFF826
:102A50003C060068400209D5DFF8280600688003BC
:102A600057D56068002854D10120FEE16068B0F5B8
:102A7000803F06D1DFF80C06016851F48031016017
:102A800026E0606800280AD1DFF8F805016831F413
:102A900080310160016831F48021016018E06068D4
:102AA000B0F5A02F0AD1DFF8DC05016851F48021D0
:102AB0000160016851F48031016009E0DFF8C4056C
:102AC000016831F480310160016831F480210160D6
:102AD000606800280ED0FEF74FFB0500DFF8A40564
:102AE0000068800315D4FEF747FB401B6528F5D32B
:102AF0000320BAE1FEF740FB0500DFF88805006817
:102B0000800306D5FEF738FB401B6528F5D303206C
:102B1000ABE1207880075AD5DFF86C05016811F029
:102B20000C0F09D0006810F00C00082816D1DFF84F
:102B30005C050068400211D4DFF848050168890788
:102B400004D5E168012901D001208EE1016831F04E
:102B5000F801226951EAC201016038E0E06800280A
:102B60001FD0DFF82085D8F8000050F00100C8F829
:102B70000000FEF701FB0500D8F80000800706D42E
:102B8000FEF7FAFA401B0328F6D303206DE1D8F8CC
:102B9000000030F0F800216950EAC100C8F80000D8
:102BA00015E0DFF8E084D8F8000040084000C8F8DD
:102BB0000000FEF7E1FA0500D8F80000800706D50E
:102BC000FEF7DAFA401B0328F6D303204DE1207804
:102BD00000072ED56069002815D0DFF8B484D8F836
:102BE000000050F00100C8F80000FEF7C5FA05002B
:102BF000D8F8000080071CD4FEF7BEFA401B03285B
:102C0000F6D3032031E1DFF88884D8F800004008CB
:102C10004000C8F80000FEF7AFFA0500D8F8000041
:102C2000800706D5FEF7A8FA401B0328F6D3032039
:102C30001BE12078400740F18D80DFF86484D8F8EC
:102C40000000C0000DD4D8F8000050F08050C8F843
:102C50000000D8F8000010F080500090009801208B
:102C60000700DFF84094D9F80000C00513D4D9F864
:102C7000000050F48070C9F80000FEF77DFA0500EE
:102C8000D9F80000C00506D4FEF776FA401B652887
:102C9000F6D30320E9E0A068012806D1DFF8080494
:102CA000016851F00101016025E0A06800280AD107
:102CB000DFF8F4030168490849000160016831F058
:102CC0000401016017E0A06805280AD1DFF8D803E5
:102CD000016851F004010160016851F001010160D7
:102CE00009E0DFF8C4030168490849000160016890
:102CF00031F004010160A068002810D0FEF73CFA12
:102D00000500DFF8A4030068800719D4FEF734FA41
:102D1000401B41F289318842F3D30320A5E0FEF73E
:102D20002BFA0500DFF880030068800708D5FEF75E
:102D300023FA401B41F289318842F3D3032094E007
:102D40003800C0B2012805D1D8F8000030F080501A
:102D5000C8F80000A069002800F08680DFF828038A
:102D6000006810F00C00082856D0A06902283DD158
:102D7000DFF81083D8F8000030F08070C8F8000049
:102D8000FEF7FAF98146D8F80000800107D5FEF772
:102D9000F3F9B0EB09000328F5D3032065E0E169FE
:102DA000206A0143606A51EA8011A06A4008401E0F
:102DB00051EA0041E06A51EA006151F00051DFF848
:102DC000CC020160D8F8000050F08070C8F8000014
:102DD000FEF7D2F90500D8F80000800144D4FEF7D0
:102DE000CBF9401B0328F6D303203EE0DFF89482A2
:102DF000D8F8000030F08070C8F80000FEF7BCF989
:102E00000500D8F8000080012ED5FEF7B5F9401B6B
:102E10000328F6D3032028E0DFF8700200680600DC
:102E2000A06901281ED016F48000E169884219D1FA
:102E300016F03F00216A884214D147F6C070304036
:102E4000616AB0EB811F0DD116F44030A16A4908C8
:102E5000491EB0EB014F05D116F07060E16AB0EB8E
:102E6000016F01D0012000E00020BDE8F2832DE9D0
:102E7000F04104000D000026002C01D10120A0E04B
:102E8000DFF82872386810F00F00A8420BD23868BB
:102E90000009000128433860386810F00F00A8428C
:102EA00001D001208DE02078800719D520784007D7
:102EB00005D5DFF8D401016851F4E05101602078B4
:102EC000000705D5DFF8C001016851F460410160D9
:102ED000DFF8B4110A6832F0F002A06802430A6019
:102EE0002078C00737D56068012806D1DFF8940143
:102EF0000068800311D4012063E06068022806D1D5
:102F0000DFF880010068800107D4012059E05D48A6
:102F10000068800701D4012053E0DFF86C81D8F805
:102F200000108908890060680143C8F80010FEF7A6
:102F300023F90600D8F8000010F00C006168B0EB2F
:102F4000810F08D0FEF718F9801B41F289318842C1
:102F5000F0D3032035E0386810F00F0085420BD223
:102F600038680009000128433860386810F00F0005
:102F7000A84201D0012024E02078400706D542492C
:102F80000A6832F4E052E06802430A6020780007E1
:102F900007D53D48016831F46041226951EAC20118
:102FA000016000F010F84249374A1268C2F3031278
:102FB000895CC840384908603848006801F0D0FB97
:102FC0000020BDE8F0812DE9F04100240025002615
:102FD00000272D48006810F00C00002804D00428B9
:102FE00004D0082804D031E02A4830E031482EE0EF
:102FF000DFF89880D8F8000010F03F000400D8F8FF
:10300000000040020CD5D8F80000C0F38810294910
:10301000A1FB00012200002301F0C8FB05000BE02A
:10302000D8F80000C0F388101A49A1FB0001220063
:10303000002301F0BBFB0500D8F80000C0F30140FD
:10304000401C40000600B5FBF6F000E01148BDE86A
:10305000F08111480068704780B5FFF7FAFF164904
:10306000094A1268C2F38222895CC84002BD80B559
:10307000FFF7EFFF1049044A1268C2F34232895C3D
:10308000C84002BD003802400838024004380240FF
:10309000743802400024F4000400002000000020E6
:1030A000403802400070004070380240003C02404E
:1030B0008874000840787D01CC74000870470000D7
:1030C0002DE9F84F05005FF0000B002400260027D3
:1030D0005FF000082878C0070ED5DFF8741508687F
:1030E00030F4000008600A68686B02430A60686B8D
:1030F000002801D1012007002868000312D5DFF85D
:1031000054150A6832F44012E86B02430A60E86B17
:10311000B0F5801F01D101200700E86B002801D124
:10312000012080462868C00212D5DFF828150A68F9
:1031300032F44002286C02430A60286CB0F5800F1C
:1031400001D101200700286C002801D10120804610
:103150002868C00101D5012007002878800677D5AE
:10316000DFF8F404016851F080510160006810F04C
:10317000805000900098DFF8E494D9F8000050F4F3
:103180008070C9F80000FDF7F7FF8346D9F800000A
:10319000C00507D4FDF7F0FFB0EB0B006528F5D3B1
:1031A000032052E2DFF8B894D9F8000010F4407020
:1031B0000400002C2CD0286B10F44070844227D0DF
:1031C000D9F8000030F440700400D9F8000050F441
:1031D0008030C9F80000D9F8000030F48030C9F818
:1031E0000000C9F80040D9F80000C00710D5FDF76D
:1031F000C3FF8346D9F80000800709D4FDF7BCFF60
:10320000B0EB0B0041F289318842F3D303201CE27A
:10321000286B10F44070B0F5407F0BD1DFF830140C
:103220000A6832F4F8122B6BDFF8380403401A43B3
:103230000A6005E0DFF81804016831F4F811016054
:10324000D9F80000296B0905090D0843C9F80000E9
:103250002878C00609D5DFF8FC13086830F08070C4
:1032600008600A68A86B02430A602868400407D512
:10327000DFF8F4130A6832F44032686E02430A60E1
:103280002868000407D5DFF8E0130A6832F440220A
:10329000A86E02430A602868C00307D5DFF8C81388
:1032A0000A6832F44012E86E02430A60286880031C
:1032B00007D5DFF8B4130A6832F44002286F0243DE
:1032C0000A602878400607D5DFF89C130A68920840
:1032D0009200686C02430A602878000607D5DFF880
:1032E00088130A6832F00C02A86C02430A6028684E
:1032F000C00507D5DFF870130A6832F03002E86CB9
:1033000002430A602868800507D5DFF85C130A6865
:1033100032F0C002286D02430A602868400507D5D4
:10332000DFF844130A6832F44072686D02430A60A1
:103330002868000507D5DFF830130A6832F44062C8
:10334000A86D02430A602868C00407D5DFF8181387
:103350000A6832F44052E86D02430A60286880042B
:1033600007D5DFF804130A6832F44042286E02439E
:103370000A602868400207D5DFF8EC120A6832F0CC
:103380008062A86F02430A60286880020DD5DFF8CA
:10339000D8120A6832F00062E86F02430A60E86FF0
:1033A000B0F1006F01D1012080462878000701D5D7
:1033B000012080462868400307D5DFF8AC120A6870
:1033C00032F04072686F02430A602868000208D534
:1033D000DFF894120A6832F08052D5F88000024378
:1033E0000A60012F03D02868800140F19980DFF83E
:1033F0007CA2DAF8000030F08060CAF80000FDF727
:10340000BBFE8146DAF80000000107D5FDF7B4FEE7
:10341000B0EB09006528F5D3032016E12878C00732
:1034200016D5686B002813D1DFF844020168C1F398
:1034300001410C000168C1F303610E0069682204B8
:1034400052EA811252EA0662A96852EA01720260E7
:103450002868000303D5E86BB0F5801F06D0286804
:10346000C00220D5286CB0F5800F1CD1DFF8000217
:103470000168C1F301410C000168C1F302710E0043
:103480006968220452EA8112E96852EA016252EA4A
:1034900006720260DFF8BC010168490949016A6AE5
:1034A000521E114301602868C00113D5DFF8C00126
:1034B0000168C1F303610C000168C1F302710E00E1
:1034C00069682A69120452EA811252EA046252EAD5
:1034D00006720260286880010DD5686829690904B0
:1034E00051EA8011E86851EA0061A86851EA007168
:1034F000DFF87C010160DAF8000050F08060CAF863
:103500000000FDF739FE8346DAF80000000107D419
:10351000FDF732FEB0EB0B006528F5D3032094E0F5
:10352000B8F1010F40F09080DFF840A1DAF8000018
:1035300030F08050CAF80000FDF71EFE8146DAF830
:103540000000800007D5FDF717FEB0EB09006528E5
:10355000F5D3032079E02868000302D5E86B002842
:1035600005D02868C00220D5286C00281DD1DFF8BE
:1035700004010168C1F301410C000168C1F302714B
:103580000E006969220452EA8112A96952EA0162B5
:1035900052EA06720260DFF8BC00016831F4F851AB
:1035A000AA6A521E51EA022101602868800217D5DA
:1035B000E86FB0F1006F13D1DFF8B8000168C1F314
:1035C00003610C000168C1F302710E0069692A6A87
:1035D000120452EA811252EA046252EA067202604E
:1035E000287800071BD5DFF88C000168C1F3036160
:1035F0000C000168C1F301410E006969320452EA0E
:10360000811252EA0462E96952EA01720260DFF84B
:1036100044100A6832F44032E86A02430A60DAF879
:10362000000050F08050CAF80000FDF7A5FD834669
:10363000DAF80000800007D4FDF79EFDB0EB0B0028
:103640006528F5D3032000E00020BDE8F28F0000DC
:10365000083802408C380240403802400070004078
:1036600070380240FFFCFF0F9038024000380240E3
:103670008438024088380240F8B500220023002434
:1036800000250026102E80F01581012717FA06F27A
:1036900013000A681A4014009C4240F009810A791C
:1036A00012F00302012A04D00A7912F00302022A5E
:1036B0001FD1D0F808C05FF0030E3200D2B2520022
:1036C0001EFA02FE3CEA0E0CD1F80CE03200D2B237
:1036D00052001EFA02FE5EEA0C0CC0F808C04268F6
:1036E000B740BA434F68C7F30017B7403A431500D5
:1036F00045600A7912F00302032A14D0C7685FF00C
:10370000030C3200D2B252001CFA02FC37EA0C075A
:10371000D1F808C03200D2B252001CFA02FC5CEAB6
:1037200007073D00C5600A7912F00302022A1ED184
:103730003200D20800EB8202176A5FF00F0C16F01D
:103740000702D2B292001CFA02FC37EA0C07D1F849
:1037500010C016F00702D2B292001CFA02FC5CEA1A
:1037600007073D003200D20800EB820215620768AD
:103770005FF0030C3200D2B252001CFA02FC37EAAE
:103780000C0791F804C01CF0030C3200D2B25200B6
:103790001CFA02FC5CEA07073D0005604A6812F467
:1037A000403F00F08580DFF8C422176857F4804757
:1037B0001760126812F480420092009ADFF8B0C2DB
:1037C000320092085CF822705FF00F0E16F00302D0
:1037D000D2B292001EFA02FE37EA0E07DFF89422F8
:1037E000904201D1002530E0DFF88C22904201D1D7
:1037F00001252AE0DFF88422904201D1022524E04D
:10380000DFF87C22904201D103251EE09D4A9042C0
:1038100001D1042519E09C4A904201D1052514E00C
:103820009A4A904201D106250FE0994A904201D16F
:1038300007250AE0974A904201D1082505E0964AFB
:10384000904201D1092500E00A25EDB216F00302ED
:10385000D2B2920095402F43320092084CF8227069
:103860008E4D2A68A243D1F804C05FEACC2C00D563
:1038700022432A608A4F3D68A543D1F804C05FEA1D
:103880008C2C00D525433D60864F3A68A243D1F881
:1038900004C05FEA8C3C00D522433A60824F3D6809
:1038A000A543D1F804C05FEACC3C00D525433D6078
:1038B000761CE7E6F1BD2DE9F04300230024002546
:1038C0000026102E80F0CF80012717FA06F2130091
:1038D00013EA010214009C4240F0C380DFF890E13B
:1038E000320092085EF822205FF00F0C16F00308F9
:1038F0005FFA88F85FEA88081CFA08F818EA0202FA
:1039000015005C4A904202D15FF0000837E05A4A45
:10391000904202D15FF0010831E0584A904202D152
:103920005FF002082BE0564A904202D15FF0030894
:1039300025E0544A904202D15FF004081FE0524A49
:10394000904202D15FF0050819E0504A904202D13E
:103950005FF0060813E04E4A904202D15FF007087C
:103960000DE04C4A904202D15FF0080807E04A4A55
:10397000904202D15FF0090801E05FF00A085FFAA7
:1039800088F816F00302D2B2920018FA02F8454500
:103990002CD1454AD2F8008038EA0408C2F80080E9
:1039A000404AD2F8008038EA0408C2F800803C4A55
:1039B000D2F8008038EA0408C2F80080374AD2F80A
:1039C000008038EA0408C2F8008016F00302D2B280
:1039D00092001CFA02F21500320092085EF82220D2
:1039E000AA43B0465FEA98084EF828205FF0030E1D
:1039F0000268B0465FFA88F85FEA48081EFA08F8DD
:103A000032EA080202603200D20800EB820832007B
:103A1000D20800EB8202D2F8209016F00702D2B250
:103A200092001CFA02FC39EA0C0CC8F820C0C268EB
:103A3000B4465FFA8CFC5FEA4C0C1EFA0CFC32EACE
:103A40000C02C2604268B74032EA070747608768E5
:103A50003200D2B252001EFA02FE37EA0E0EC0F851
:103A600008E0761C2DE7BDE8F083000044380240F2
:103A700008380140000002400004024000080240F3
:103A8000000C0240001002400014024000180240E6
:103A9000001C02400020024000240240083C01407B
:103AA0000C3C0140043C0140003C014010B410F0CB
:103AB0000703DFF8F04122684FF6FF010A4052EA9F
:103AC0000322DFF8E4110A43226010BC7047DFF8DC
:103AD000D4010068C0F3022070470000010049B221
:103AE000002909D4012210F01F018A406F49030008
:103AF0005BB25B0941F823207047010049B20029FD
:103B00000DD4012210F01F018A40694903005BB205
:103B10005B0941F82320BFF34F8FBFF36F8F7047CE
:103B200010B4020052B2002A05D40A01614B04000D
:103B300064B21A5508E00A015F4B040064B214F045
:103B40000F04234403F8042C10BC704770B4030026
:103B500013F00704D4F10700052801D3042001E085
:103B6000D4F10700251D072D01D2002500E0E51E38
:103B7000012616FA00F0401E0140A94016FA05F58C
:103B80006D1E2A401143080070BC704710B5040038
:103B9000601EB0F1807F01D301200EE0601E474916
:103BA00008600F215FF0FF30FFF7BAFF00204449A3
:103BB0000860072043490860002010BD10B50400CC
:103BC0002000FFF773FF10BD2DE9F04104000D0048
:103BD00016000027FFF77BFF804632002900404691
:103BE000FFF7B4FF0100200040B2FFF799FFBDE8E6
:103BF000F08110B50400200040B2FFF76FFF10BD48
:103C000010B50400200040B2FFF777FF10BD10B5DB
:103C100004002000FFF7BAFF10BDBFF35F8F2A48F2
:103C2000016831F480310160002028490860704744
:103C300050F00101254A116023490A6852F480328C
:103C40000A60BFF34F8FBFF36F8F70474178204AF0
:103C50001160017800291ED041681E4A1160017B65
:103C6000C27A120652EA0172817A52EAC142417B5B
:103C700052EA8142817B52EA4142C17B52EA0142CF
:103C8000417A52EA0122017A52EA410201780A435A
:103C900011490A6005E000210E4A116000210E4A18
:103CA000116070470CED00E00000FA0500E100E053
:103CB00080E100E000E400E018ED00E014E000E046
:103CC00018E000E010E000E024ED00E094ED00E0FA
:103CD00098ED00E09CED00E0A0ED00E010B50400E0
:103CE000002C01D1012035E094F83D00002805D1D9
:103CF000002084F83C00200000F070FE022084F8D0
:103D00003D00211D206800F031F9012084F84800B1
:103D1000012084F83E00012084F83F00012084F84F
:103D20004000012084F84100012084F84200012075
:103D300084F84300012084F84400012084F8450001
:103D4000012084F84600012084F84700012084F80F
:103D50003D00002010BD010091F83D00012801D078
:103D6000012048E0022081F83D000868C06850F05A
:103D700001000B68D8600868DFF87C30984221D0D9
:103D80000868B0F1804F1DD00868DFF870309842A5
:103D900018D00868DFF86830984213D00868DFF858
:103DA000643098420ED00868DFF85C30984209D041
:103DB0000868DFF85830984204D00868DFF85030BF
:103DC000984211D108688368DFF8480003401A0060
:103DD000062A0FD0B2F5803F0CD00868006850F07A
:103DE00001000B68186005E00868006850F00100E9
:103DF0000B6818600020704700000140000400407C
:103E000000080040000C0040000401400040014058
:103E1000001800400700010070B504002068C56864
:103E200020680669B00718D5A80716D57FF00200EC
:103E300021680861012020772068806910F0030F55
:103E400003D0200000F0CBFD05E0200000F0C8FD0D
:103E5000200000F0C6FD00202077700718D5680705
:103E600016D57FF0040021680861022020772068C1
:103E7000806910F4407F03D0200000F0B0FD05E021
:103E8000200000F0ADFD200000F0ABFD0020207709
:103E9000300718D5280716D57FF00800216808617B
:103EA000042020772068C06910F0030F03D02000A1
:103EB00000F095FD05E0200000F092FD200000F0EC
:103EC00090FD00202077F00618D5E80616D57FF083
:103ED000100021680861082020772068C06910F46C
:103EE000407F03D0200000F07AFD05E0200000F0C4
:103EF00077FD200000F075FD00202077F00708D541
:103F0000E80706D57FF00100216808612000FEF770
:103F1000A1FC300608D5280606D57FF08000216870
:103F20000861200000F05EFDF00508D5280606D5E2
:103F30007FF4807021680861200000F054FD700655
:103F400008D5680606D57FF040002168086120008A
:103F500000F04AFDB00608D5A80606D57FF020007F
:103F600021680861200000F040FD70BD10B40468B5
:103F7000DFF8C030984212D0B0F1804F0FD0DFF898
:103F8000B82090420BD0DFF8B420904207D0DFF881
:103F9000B020904203D0DFF8AC20904203D134F03F
:103FA00070044A68144398422AD0B0F1804F27D059
:103FB000DFF88420904223D0DFF8802090421FD089
:103FC000DFF87C2090421BD0DFF87820904217D099
:103FD000DFF87420904213D0DFF8702090420FD0A9
:103FE000DFF86C2090420BD0DFF86820904207D0B9
:103FF000DFF86420904203D0DFF86020904203D1C4
:1040000034F44074CA68144334F080044A69144399
:1040100004608A68C2620A688262984203D0DFF84C
:104020002420904201D10A6902630122426110BC3E
:1040300070470000000001400004004000080040FC
:10404000000C0040000401400040014000440140D9
:104050000048014000180040001C004000200040C3
:104060002DE9F84305000E004FF4077000F00AFF39
:104070000400002C08D1D5F8D40205EB8000002103
:10408000C0F8C0120220BBE04FF407775FF00008D1
:10409000A14642463900484600F010FFD5F8D40248
:1040A00005EB8000C0F8C042D5F8D40205EB8000D3
:1040B000D0F8C002C5F8BC02287C002831D1DFF856
:1040C0008C864FF40073022298F80010280000F04C
:1040D00050FE142798F8000010F00F007843284491
:1040E00001218184DFF868864FF40073022298F87A
:1040F0000010280000F03DFE98F8000010F00F00BE
:10410000784328440121A0F86411DFF848060078BC
:1041100010F00F0007FB00F705EB07001021C1842A
:104120002EE0DFF828864023022298F800102800AD
:1041300000F01FFE142798F8000010F00F007843DD
:10414000284401218184DFF808864023022298F860
:104150000010280000F00DFE98F8000010F00F008D
:10416000784328440121A0F86411DFF8E8050078BD
:1041700010F00F0007FB00F705EB07001021C184CA
:10418000DFF8D075082303223978280000F0F1FD0C
:10419000397811F00F011420414305EB0100012192
:1041A00081840020C4F80402D5F8D40205EB800015
:1041B000D0F8C402006880470020C4F81402002030
:1041C000C4F81802D4F80402002801D1022017E034
:1041D000287C00280AD14FF40073D4F80422DFF8B9
:1041E00070050178280000F034FE08E04023D4F880
:1041F0000422DFF85C050178280000F02AFE002088
:10420000BDE8F283F8B504000D00DFF84075397899
:10421000200000F0BFFD1426387810F00F00704326
:10422000204400218184DFF828753978200000F0CF
:10423000B1FD387810F00F00704320440021A0F841
:104240006411DFF810753978200000F0A3FD38788C
:1042500010F00F007043204400218184387810F062
:104260000F0006FB00F604EB06000021C184D4F821
:10427000D40204EB8000D0F8C002002819D0D4F892
:10428000D40204EB8000D0F8C40240688047D4F820
:10429000D40204EB8000D0F8C00200F00DFED4F888
:1042A000D40204EB80000021C0F8C0120020C4F842
:1042B000BC020020F2BD2DE9FC4105000E00D5F83E
:1042C000D40205EB8000D0F8C04200208DF8000039
:1042D0000020ADF802000027002C01D103208CE063
:1042E000307810F0600000283FD020287DD1F08881
:1042F00000282ED03078000619D5F2882100707879
:10430000D5F8D43205EB8303D3F8C4329B689847C1
:10431000F088082802D35FF0070801E0B6F80680AD
:10432000424692B22100280000F0FBFD1CE07078AC
:1043300084F80002F088402801D2F08800E0402094
:1043400084F8010294F801222100280000F006FE02
:104350000AE0002231007078D5F8D43205EB8303EF
:10436000D3F8C4329B68984745E07078002806D09F
:10437000012832D00A2814D00B2823D02EE095F83B
:104380009C02032806D102220DF10201280000F050
:10439000C8FD05E03100280001F0A9FA032007005C
:1043A00022E095F89C02032805D1012269462800E5
:1043B00000F0B7FD05E03100280001F098FA032075
:1043C000070011E095F89C02032805D03100280071
:1043D00001F08DFA0320070006E005E03100280017
:1043E00001F085FA0320070005E03100280001F004
:1043F0007EFA032007003800C0B2BDE8F681F8B5A8
:1044000004000D00D4F8C862D4F8D40204EB800094
:10441000D0F8C002002801D1032052E0D4F8D40221
:1044200004EB8000D0F8C07214222800C0B210F053
:104430000F00504320448069002827D02800C0B2D4
:1044400010F00F005043204480692B00DBB213F0C2
:104450000F0324214B4306EB0301496CB0FBF1F33E
:1044600001FB1300002811D12800C0B210F00F008A
:1044700002FB00F204EB0200002181610023002214
:104480002900C9B2200000F0CCFC19E00020C7F8D8
:104490001402D4F8D40204EB8000D0F8C4020069FE
:1044A00000280DD02A00D2B217F50471D7F80802FF
:1044B000D4F8D43204EB8303D3F8C4321B69984791
:1044C0000020F2BD70B504000D00D4F8D40204EB56
:1044D0008000D0F8C062D4F8D40204EB8000D0F899
:1044E000C002002801D1032013E02900C9B2200036
:1044F00000F0BEFCC6F80C0216F50371D6F80402F3
:10450000D4F8D42204EB8202D2F8C422D2689047B5
:10451000002070BD38B50500D5F8D40205EB800049
:10452000D0F8C042002C01D103201DE0D5F8D40200
:1045300005EB8000D0F8C402002814D094F80002E3
:10454000FF2810D094F8012292B2210094F80002C2
:10455000D5F8D43205EB8303D3F8C4329B6898476F
:10456000FF2084F80002002032BDF8B506007A4F23
:104570008221380001F0C3FC04000121380001F061
:10458000BEFC05008121380001F0B9FC0100002CBF
:1045900001D01020A071002D01D04020A88000295A
:1045A00001D040208880432030803800F2BDF8B52B
:1045B0000600694F8221380001F0A1FC04000121AE
:1045C000380001F09CFC05008121380001F097FCC7
:1045D0000100002C01D01020A071002D02D04FF45A
:1045E0000070A880002902D04FF40070888043201A
:1045F00030803800F2BDF8B50600574F82213800F0
:1046000001F07DFC04000121380001F078FC050078
:104610008121380001F073FC0100002C01D0102032
:10462000A071002D01D04020A880002901D0402099
:104630008880432030803800F2BD01000A200880C5
:10464000464870470200002901D1032006E0D2F855
:10465000D40202EB8000C0F8C4120020704710B4EE
:104660000400D4F8D40204EB8000D0F8C032002B50
:1046700001D1032004E0C3F80812C3F8102200207F
:1046800010BC70470300D3F8D40203EB8000D0F8CD
:10469000C022002A01D1032002E0C2F80412002047
:1046A000704770B50500D5F8D40205EB8000D0F84E
:1046B000C0420126002C01D103201DE0D4F81402D1
:1046C000002817D10120C4F8140220490A7812F0FA
:1046D0000F021420424305EB0200D4F8102282613D
:1046E000D4F81032D4F808220978280000F099FB99
:1046F000002006003000C0B270BD38B50400D4F808
:10470000D40204EB8000D0F8C052D4F8D40204EBF9
:104710008000D0F8C002002801D1032015E0207CE1
:10472000002809D14FF40073D5F804220848017815
:10473000200000F08EFB07E04023D5F80422044857
:104740000178200000F085FB002032BDFD00002034
:10475000FE000020FF0000204C0000200800002088
:1047600010B504004FF47A700D490978B0FBF1F0F0
:104770000C490968B1FBF0F0FFF749FA002801D0B5
:1047800001200CE0102C09D2002221005FF0FF3044
:10479000FFF71AFA04480460002000E0012010BD71
:1047A000FC0000200400002000000020BBBBE1B1A1
:1047B000B2F5803F80F07E80022A1ED98C46B1FB84
:1047C000F2F102FB11C31B0443EA1043B3FBF2FCFA
:1047D00002FB1C3380B240EA0343B3FBF2F002FB5E
:1047E000103240EA0C4000237047022A05D9844663
:1047F000B0FBF2F002FB10C270474AB105D100F0E5
:10480000010249085FEA3000704700220023704728
:1048100001F0ACBB0B000200002100207047904269
:1048200071EB030CF6D3B3F5803F2FD2F0B5B3FA9A
:1048300083F7B1FA81F4A7F10F0E3D1B5340CEF17F
:10484000200602FA0EF2F3415340B5F10F0746D8A5
:104850000F3C2C444140C4F12006A040F1414140AE
:10486000B1FBF3F603FB1611A2FB0645001BA941A1
:1048700002D2761E8018594180EA010221FA0EF315
:1048800062FA0EF200215A403046F0BD30B4B1FB5E
:10489000F3FC03FB1C11A2FB0C45001BA94103D236
:1048A000ACF1010C8018594130BC02460B46604601
:1048B00000217047B2F1807F65D3F0B5B2FA82F77C
:1048C000B1FA81F4C7F10F063D1B22FA06F307F196
:1048D000110EF24120355A40B5F10F07B8D94140C9
:1048E000C4F12006A040F1414140B1FBF3FC03FBC1
:1048F0001C11A2FB0C45001BA94103D2BCF1010C09
:10490000801859410F2F12D30F3FC90341EA50417C
:10491000B1FBF3F603FB1611A2FB0645D4EBC03046
:10492000A94102D2761E8018594146EACC3C07B311
:104930004140C7F12006B840F1414140B1FBF3F6D8
:1049400003FB1611A2FB0645001BA94102D2761EED
:104950008018594180EA010221FA0EF3C7F12004C0
:1049600062FA0EF20CFA07F05A402CFA04F13043C6
:10497000F0BD80EA010221FA0EF3002162FA0EF284
:1049800060465A40F0BD8C46B1FBF2F102FB11C308
:104990001B0243EA1063B3FBF2FC02FB1C331B0255
:1049A0004CEA002043EA1063B3FBF2FC02FB1C3329
:1049B0001B024CEA002043EA1063B3FBF2FC02FB4B
:1049C0001C331B024CEA002043EA1063B3FBF2FCE9
:1049D00002FB1C324CEA00200023704770477047EE
:1049E00070477047704770477047704778B587B019
:1049F00004002068B0F1A04F67D1DFF8900401688F
:104A000051F001010160016811F001010591059962
:104A1000016851F002010160016811F00201059185
:104A20000599016851F001010160006810F0010072
:104A3000059005984FF4C05000900220019000208E
:104A40000290032003900A200490DFF84454694642
:104A50002800FEF711FEE06A01280AD14FF4007029
:104A60000090002001900020029069462800FEF787
:104A700003FE4FF48060009012200190012002900C
:104A80000A20049069462800FEF7F6FDDFF80404CA
:104A9000016851F080010160006810F0800006900C
:104AA0000698DFF8F403016851F480410160006862
:104AB00010F4804005900598002206214320FFF75E
:104AC00083F84320FFF795F89EE02068DFF8CC13C9
:104AD000884240F09980DFF8B453286850F0010014
:104AE0002860286810F0010005900598286850F0AB
:104AF00002002860286810F00200059005982868D8
:104B000050F004002860286810F004000590059813
:104B1000286850F080002860286810F08000059018
:104B20000598286850F480702860286810F4807018
:104B3000059005982020009002200190002002900E
:104B4000032003900A200490DFF844636946300094
:104B5000FEF792FD082000900220019000200290B4
:104B6000032003900A20049069463000FEF784FD7C
:104B700043F62340009002200190002002900A207A
:104B800004906946C648FEF777FD01200090022098
:104B90000190002002900A2004906946C148FEF767
:104BA0006BFD1020009002200190002002900A204E
:104BB00004906946BC48FEF75FFD4FF4006000902A
:104BC00002200190002002900A2004906946B74814
:104BD000FEF752FD286850F080402860286810F0E9
:104BE000804005900598286850F00050286028689B
:104BF00010F0005005900598002206214D20FEF788
:104C0000E3FF4D20FEF7F5FF08B070BD10B50400BE
:104C100004F2C441D4F8040500F022FF10BD38B5F9
:104C200004000D002900C9B22420414304EB010017
:104C3000D0F888222900C9B2D4F8040500F044FF56
:104C400031BD38B504000D002900C9B2242041430C
:104C500004EB0100826C2900C9B2D4F8040500F00D
:104C6000D9FF31BD10B50400D4F8040501F0C2F835
:104C700010BD38B5040001202169002902D00229A5
:104C800002D003E0002502E0012500E00125D4F870
:104C9000040501F058F82900C9B2D4F8040501F060
:104CA00090F831BD10B50400D4F8040501F08DF87A
:104CB00010BD10B50400D4F8040501F090F810BD43
:104CC00038B504000D002900C9B2D4F8040501F07C
:104CD000CEF831BD38B504000D002900C9B2D4F8B2
:104CE000040501F09DF831BD10B50400D4F80405A9
:104CF00001F0E4F810BD10B50400D4F8040501F08B
:104D0000E0F810BD38B50400694D5FF0A0402860A0
:104D100006206860002028630020E86000202862E8
:104D20000220A8610020E861022028610020E862DA
:104D300000206862C5F80445C4F8C852280001F094
:104D400017F98021280002F082F840220021280073
:104D500002F048F880220121280002F043F80020E8
:104D600032BD10B50400D4F8C80201F0C1F900202A
:104D700010BDF8B504000D0016001F003300DBB2B3
:104D80003A0092B22900C9B2D4F8C80201F054FD29
:104D90000020F2BD38B504000D002900C9B2D4F8D6
:104DA000C80201F09DFD002032BD38B504000D00A1
:104DB0002900C9B2D4F8C80201F028FE002032BD93
:104DC00038B504000D002900C9B2D4F8C80201F0BA
:104DD00065FE002032BD0200D2F8C8320800C0B221
:104DE000000609D5C9B211F07F012420414303EB2D
:104DF000010090F83E0008E0C9B211F07F012420C4
:104E0000414303EB010090F87E02704738B504007F
:104E10000D002900C9B2D4F8C80201F0F5FC002049
:104E200032BDF8B504000D0016001F002900C9B2FC
:104E300011F07F011420414304EB010087613B0026
:104E400032002900C9B2D4F8C80201F0B3FD002035
:104E5000F2BDF8B504000D0016001F003B00320043
:104E60002900C9B2D4F8C80201F06FFD0020F2BDDC
:104E700038B504000D002900C9B2D4F8C80201F009
:104E800090FD32BD01000B487047000030380240F1
:104E90000000024034380240443802400000044020
:104EA0000004024000080240001C024000200240B2
:104EB00000110020E41800207047000062F30F2268
:104EC00062F31F42401810F0030308D0C91A1FD321
:104ED000DB0748BF00F8012D28BF20F8022D130082
:104EE00030B414461546103928BF20E93C00FAD8E2
:104EF000490728BF20E90C0048BF40F8042D89006D
:104F000028BF20F8022D48BF00F8012D30BC7047A3
:104F1000C91818BF00F8012DCB0728BF00F8012DD4
:104F2000704770B504000D0016000220C4F894020A
:104F3000A661E66133002A0000212000FFF771FF1F
:104F4000002070BD70B504000D00160033002A006B
:104F500000212000FFF765FF002070BD70B5040040
:104F60000D0016000320C4F89402C4F85861C4F878
:104F70005C6133002A0000212000FFF76AFF002057
:104F800070BD70B504000D00160033002A0000212A
:104F90002000FFF75EFF002070BD10B50400042064
:104FA000C4F894020023002200212000FFF739FFFB
:104FB000002010BD10B504000520C4F894020023A1
:104FC000002200212000FFF744FF002010BD000058
:104FD00010B4010008000278441C237852EA032030
:104FE00080B210BC704770B504000D000026287810
:104FF00010F0600000280FD0202801D0402844D1B4
:1050000029002000D4F8D42204EB8202D2F8B8227E
:105010009268904706003CE06878002821D001287B
:1050200029D0032822D005280BD0062804D0082830
:1050300012D009280AD023E02900200000F002FA4B
:1050400022E02900200000F001FB1DE029002000E3
:1050500000F030FB060017E02900200000F0AAFB5A
:1050600012E02900200000F0CCFB0DE02900200018
:1050700000F0EDFB08E02900200000F006FC03E052
:105080002900200000F033FC03E02900200000F09C
:105090002EFC3000C0B270BDF8B505000E00002730
:1050A000307810F06000002803D0202801D040287C
:1050B00048D195F89C02401E02283ED8307902283B
:1050C00036D2B188C9B2280000F013FF04002000D6
:1050D000C0B2FF281FD02000C0B200281BD1200082
:1050E000C0B205EB8000D0F8B802806800280FD06D
:1050F0002000C0B2C5F8D402310028002200D2B28C
:1051000005EB8202D2F8B82292689047070004E0CB
:105110000320070001E003200700F08800280BD1DE
:105120003800C0B2002807D12800FFF736FF03E09F
:105130003100280000F0DBFB03E03100280000F024
:10514000D6FB03E03100280000F0D1FB3800C0B2EC
:10515000F2BD2DE9F84304000D000027B5F80480E6
:10516000287810F0600000282BD0202802D040289A
:1051700040F060814146C9B2200000F0BDFE06004B
:105180003000C0B2FF281BD03000C0B2002817D1B9
:105190003000C0B2C4F8D4023000C0B204EB8000CA
:1051A000D0F8B802806800280AD029002000320018
:1051B000D2B204EB8202D2F8B8229268904707007C
:1051C0003CE16878002800F0978001283CD0032853
:1051D00040F02B8194F89C02022802D0032817D0BB
:1051E0002DE04046C0B200280DD04046C0B2802815
:1051F00009D04146C9B22000FFF7D7FD8021200029
:10520000FFF7D3FD03E02900200000F070FB1AE057
:10521000688800280FD14046C0B200280BD0404615
:10522000C0B2802807D0E888002804D14146C9B21E
:105230002000FFF7BAFD2000FFF7AFFE03E02900D2
:10524000200000F054FBF4E094F89C02022802D005
:10525000032817D04BE04046C0B200280DD040468E
:10526000C0B2802809D04146C9B22000FFF79DFD99
:1052700080212000FFF799FD03E02900200000F0C5
:1052800036FB38E06888002830D118F07F0F04D052
:105290004146C9B22000FFF793FD2000FFF77DFED5
:1052A0004146C9B2200000F027FE06003000C0B21F
:1052B000FF281BD03000C0B2002817D13000C0B288
:1052C000C4F8D4023000C0B204EB8000D0F8B802B9
:1052D000806800280AD0290020003200D2B204EBF6
:1052E0008202D2F8B82292689047070003E02900B2
:1052F000200000F0FCFA9CE094F89C02022802D006
:1053000003282FD08CE04046C0B2002808D0404689
:10531000C0B2802804D02900200000F0E8FA83E021
:105320004046C0B200060AD54146C9B211F07F011D
:105330001420414304EB010010F1140909E0414637
:10534000C9B211F07F011420414304EB010010F5B4
:10535000AA790020C9F80000022249462000FFF780
:10536000E0FD61E04046C0B200060FD54146C9B23B
:1053700011F00F011420414304EB0100808C002840
:1053800015D12900200000F0B2FA4DE04146C9B223
:1053900011F00F011420414304EB0100B0F8640147
:1053A000002804D12900200000F0A1FA3CE040468A
:1053B000C0B200060AD54146C9B211F07F011420DF
:1053C000414304EB010010F1140909E04146C9B260
:1053D00011F07F011420414304EB010010F5AA797C
:1053E0004046C0B2002803D04046C0B2802803D156
:1053F0000020C9F800000DE04146C9B22000FFF7C7
:10540000EAFC002803D00120C9F8000002E00020D7
:10541000C9F80000022249462000FFF782FD03E0A0
:105420002900200000F063FA03E02900200000F0CA
:105430005EFA03E02900200000F059FA3800C0B2FB
:10544000BDE8F283F8B504000D000020ADF80000BF
:1054500000260027688880B2000AC0B201280AD05E
:10546000022810D0032823D0062800F0A5800728A2
:1054700000F0B280C2E06946207CD4F8B422126801
:1054800090470600BFE0207C002808D16846D4F889
:10549000B812896A884706000220707007E06846E3
:1054A000D4F8B812C96A8847060002207070AAE0D2
:1054B000A878002808D002282CD018D304284FD070
:1054C0003BD305285FD071E0D4F8B40240680028CF
:1054D00007D06946207CD4F8B42252689047060071
:1054E00004E02900200000F002FA7F1C63E0D4F8F9
:1054F000B4028068002807D06946207CD4F8B42222
:1055000092689047060004E02900200000F0EFF9BF
:105510007F1C50E0D4F8B402C068002807D0694668
:10552000207CD4F8B422D2689047060004E0290019
:10553000200000F0DCF97F1C3DE0D4F8B4020069E3
:10554000002807D06946207CD4F8B422126990471D
:10555000060004E02900200000F0C9F97F1C2AE0C1
:10556000D4F8B4024069002807D06946207CD4F8FA
:10557000B42252699047060004E02900200000F0A0
:10558000B6F97F1C17E0D4F8B4028069002807D070
:105590006946207CD4F8B42292699047060004E062
:1055A0002900200000F0A3F97F1C04E0290020005E
:1055B00000F09DF97F1C26E0207C002806D168467B
:1055C000D4F8B812496B8847060004E0290020008F
:1055D00000F08DF97F1C16E0207C002808D1684679
:1055E000D4F8B812096B884706000720707004E0F1
:1055F0002900200000F07BF97F1C04E02900200036
:1056000000F075F97F1C3800C0B200281DD1E88871
:10561000002817D0BDF8000000280ED0BDF800000B
:10562000E988884202D3E888ADF80000BDF8002080
:1056300031002000FFF775FC07E02900200000F092
:1056400056F902E02000FFF7A8FCF1BD70B5040098
:105650000D00A888002828D1E888002825D168886E
:10566000802822D2A87810F07F00060094F89C02CF
:10567000032804D12900200000F039F919E084F84A
:105680009E623100C9B22000FFF7C0FB2000FFF787
:1056900084FC3000C0B2002803D0022084F89C02B1
:1056A00007E0012084F89C0203E02900200000F0BC
:1056B0001EF970BDF8B504000D0000263C4F688847
:1056C00038703878022805D32900200000F00FF93F
:1056D00003206CE094F89C02022802D0032821D019
:1056E00059E03878002819D038786060397820007F
:1056F00000F091F906003000C0B2002807D0290060
:10570000200000F0F4F8022084F89C0209E0200058
:10571000FFF743FC032084F89C0202E02000FFF71F
:105720003CFC42E0387800280CD1022084F89C022E
:10573000387860603978200000F080F92000FFF7A9
:105740002CFC27E038786168884220D06168C9B2B3
:10575000200000F073F9387860603978200000F09C
:105760005AF906003000C0B200280CD029002000F1
:1057700000F0BDF86168C9B2200000F05FF90220B6
:1057800084F89C0206E02000FFF707FC02E02000FE
:10579000FFF703FC09E02900200000F0A8F83978A1
:1057A000200000F04BF9032006003000C0B2F2BD2B
:1057B000841C002038B504000D00E888012804D0BE
:1057C0002900200000F093F81AE094F89C02401E93
:1057D000012802D9801E09D00EE00020A06001221D
:1057E00014F108012000FFF79CFB09E00122211DB4
:1057F0002000FFF796FB03E02900200000F077F877
:1058000031BD38B504000D0094F89C02401E0228FA
:1058100018D8E888022804D02900200000F067F892
:1058200014E00120E060D4F8A402002803D0E0686E
:1058300050F00200E060022214F10C012000FFF79A
:1058400070FB03E02900200000F051F831BD38B5AD
:1058500004000D006888012806D10120C4F8A402C4
:105860002000FFF79AFB0FE06888022808D1A8887B
:1058700080B2000A84F8A0022000FFF78EFB03E04C
:105880002900200000F033F831BD38B504000D00C8
:1058900094F89C02401E022809D86888012805D186
:1058A0000020C4F8A4022000FFF777FB03E02900E2
:1058B000200000F01CF831BD70B504000D00280078
:1058C00001782170401C01786170461C3000FFF7A0
:1058D0007FFB6080701C461C3000FFF779FBA080C6
:1058E000701C461C3000FFF773FBE08070BD38B5BC
:1058F00004000D0080212000FFF757FA002120004E
:10590000FFF753FA31BD2DE9F04104000D001600F8
:105910005FF00008002C23D02700380000F022F8A8
:105920004000801C308030784146C9B2685418F17C
:10593000010803204146C9B2685418F101083878BB
:1059400000280DD038784146C9B268547F1C18F140
:10595000010800204146C9B2685418F10108EEE779
:10596000BDE8F0810200002013001978002902D060
:10597000401C5B1CF9E7C0B2704770B505000C0015
:105980001600002D01D1032014E00020C5F8B80254
:105990000020C5F8C4020020C5F8D002002C01D0B8
:1059A000C5F8B442012085F89C022E702800FFF74C
:1059B000A9F9C0B270BD38B505000C000020ADF8E3
:1059C0000000002C01D103201BE0C5F8B842D5F837
:1059D000D40205EB8000D0F8B802C06A00280AD0D3
:1059E0006846D5F8D41205EB8101D1F8B812C96A1E
:1059F0008847C5F8D002D5F8D802401CC5F8D802AF
:105A0000002032BD10B504002000FFF7AAF910BD38
:105A100001000020704770B504000D000026D4F886
:105A2000B802002807D02900C9B22000D4F8B82253
:105A30001268904706003000C0B270BD70B5040017
:105A40000D0000262900C9B22000D4F8B8225268FF
:105A50009047002801D0032006003000C0B270BD7E
:105A600038B504000D00290004F2AA20FFF724FF36
:105A70000120C4F89402B4F8B002C4F8980294F873
:105A8000AA0210F01F00002803D002280DD006D370
:105A900011E004F2AA212000FFF7A5FA12E004F2B7
:105AA000AA212000FFF7F8FA0CE004F2AA21200056
:105AB000FFF74FFB06E094F8AA1211F080012000D6
:105AC000FFF773F9C0B232BD2DE9F84305000E00AF
:105AD00017005FF000093000C0B2002865D115F54D
